:020000040800F2
:100000003805002045010008850900083905000869
:10001000810900088D01000833100008000000006D
:10002000000000000000000000000000250B000898
:1000300001030008000000000D0A0008390C000848
:100040005F0100085F0100085F0100085F01000810
:100050005F0100085F0100085F0100085F01000800
:100060005F0100085F0100085F0100085F010008F0
:100070005F0100085F0100085F0100085F010008E0
:100080005F0100085F0100085F0100085F010008D0
:100090005F0100085F0100085F0100085F010008C0
:1000A0005F0100085F0100085F0100085F010008B0
:1000B0005F0100085F0100085F0100085F010008A0
:1000C0005F0100085F0100085F0100085F01000890
:1000D0005F010008D90C00085F0100085F010008FB
:1000E0005F0100085F0100085F0100085F01000870
:1000F0005F0100085F0100085F0100085F01000860
:100100005F0100085F0100085F0100085F0100084F
:100110005F0100085F0100085F0100085F0100083F
:100120005F0100085F0100085F0100085F0100082F
:10013000DFF80CD000F018F800480047A1100008C4
:10014000380500200648804706480047FEE7FEE7DE
:10015000FEE7FEE7FEE7FEE7FEE7FEE7FEE7FEE777
:10016000790C000831010008064C074D06E0E068F4
:1001700040F0010394E8070098471034AC42F6D3EE
:10018000FFF7DAFFFC1000081C11000800BFFEE7B3
:100190002DE9F04706460D464FF000084FEA4609A4
:1001A00009F1010083B208F23F1082B2494640468D
:1001B00000F068FB00270FE0002409E035F8140088
:1001C00000F0A6FB35F8140000F0A2FB601C84B21E
:1001D000A02CF3DB781C87B2022FEDDBBDE8F087A3
:1001E00010B500F089F8A52800D010BD00F084F803
:1001F0005A2800D0F9E700F003F800BFF5E7000047
:100200002DE9F04FD3B000F077F8814600F074F894
:10021000054600F071F8824600F06EF883464BEA1E
:100220000A20519009EB050050445844C0B2529046
:10023000B9F1010F05D1782D03DA5198B0F5A07FFF
:100240000DD0002403E000F057F8601C84B25198F0
:100250008442F8DB00F050F853B0BDE8F08F002482
:1002600012E000F049F8804600F046F8064608EB38
:10027000060152980844C0B2529046EA082001A9EB
:1002800021F81400601C84B2A02CEADB00F034F8E2
:1002900007465298B84227D1C5B91448006808B932
:1002A000012000E00020114908601148007868B979
:1002B00001200F4908704FF4784000F03FF94FF4E7
:1002C000FA6000F0C7FE002000F038F901A92846C6
:1002D000FFF75EFF772D07D10648006808B90120B7
:1002E00000E000200349086000BFB5E79481214287
:1002F000650000209401234210B500F089FD10BD77
:100300007047000051B18200A2F1C042126842F071
:1003100001038200A2F1C042136009E08200A2F151
:10032000C0421268034B1A408300A3F1C0431A6015
:1003300070470000FEFF0F00D0E901121143C268B0
:100340001143026911434269114382691143C26931
:100350001143026A1143426A1143826A1143C26A1D
:100360001143026B114302689200A2F1C042116076
:10037000816808290BD101688900A1F1C041096891
:1003800041F0400201688900A1F1C0410A60416B5F
:100390000968426B526841EA0211426B926841EA75
:1003A0000221426B928941EA0241426B128A41EA80
:1003B0000251426B127D41EA0261426B9269114324
:1003C0000268521C9200A2F1C0421160C16AB1F5EC
:1003D000804F1BD1816B0968826B526841EA021120
:1003E000826B926841EA0221826B128A41EA0251D1
:1003F000826B127D41EA0261826B9269114302684D
:100400009200A2F1C042C2F8041107E06FF07042FE
:1004100001688900A1F1C041C1F8042170472DE9AC
:10042000F04102460025002600200023002400277A
:1004300091F803C00CF00F0591F803C00CF0100CFC
:10044000BCF1000F03D091F802C04CEA050591F809
:1004500000C0BCF1000F31D0146800202BE04FF039
:10046000010C0CFA00F3B1F800C00CEA03069E423E
:1004700020D183004FF00F0C0CFA03F7BC4305FAB0
:1004800003FC4CEA040491F803C0BCF1280F06D128
:100490004FF0010C0CFA00FCC2F814C00AE091F80D
:1004A00003C0BCF1480F05D14FF0010C0CFA00FC61
:1004B000C2F810C0401C0828D1D31460B1F800C0A5
:1004C000BCF1FF0F34DD546800202EE000F1080C71
:1004D0004FF0010808FA0CF3B1F800C00CEA03066B
:1004E0009E4221D183004FF00F0C0CFA03F7BC435E
:1004F00005FA03FC4CEA040491F803C0BCF1280F90
:1005000005D100F1080C08FA0CF8C2F8148091F833
:1005100003C0BCF1480F07D100F1080C4FF00108EF
:1005200008FA0CF8C2F81080401C0828CED354609A
:10053000BDE8F0810161704700BFFEE770B5054678
:1005400040F2DF1340F23F120021084600F09AF912
:10055000002403E0284600F0C9F9641CB4F5163FF6
:10056000F8D370BD70B540F2DF1340F23F120021A6
:10057000084600F087F9002426E000251FE0502CF3
:1005800002DA4FF4784615E0A02C02DA4FF4FC664C
:1005900010E0F02C01DA1F260CE0B4F5A07F02DA9F
:1005A0004FF6E07606E0B4F5C87F02DA4FF6FF7644
:1005B00000E00026304600F099F9681C85B2B5F5D8
:1005C000A07FDCDB601C84B2B4F5F07FD5DB70BDAE
:1005D00000B597B00121080200F01AFA01214FF48A
:1005E000F07000F025FA18208DF85B0003208DF8DC
:1005F0005A004CF6B370ADF8580016A92F48FFF713
:100600000EFF4FF68070ADF8580016A92C48FFF782
:1006100006FF4FF23F00ADF8580016A92948FFF732
:10062000FEFE41F23F60ADF8580016A92648FFF7DC
:10063000F6FE01200090002001900F200290002083
:100640000390049005900690079008900990102060
:100650000A9000200B900D900E900F904FF4805058
:1006600010900020119012901390CDF850D0CDF83A
:1006700054D007A8FFF760FE01210020FFF742FEDB
:100680000220079007A8FFF757FE01210220FFF77D
:1006900039FE0420079007A8FFF74EFE0121042031
:1006A000FFF730FE0620079007A8FFF745FE01215F
:1006B0000620FFF727FE17B000BD00000014014020
:1006C00000180140001C01400020014010B501202D
:1006D00000F024F9142000F0BDFC282000F01EF9E1
:1006E000F22000F01BF9182000F00CF9A32000F014
:1006F00009F9122000F006F9022000F003F9B220F7
:1007000000F000F9122000F0FDF8FF2000F0FAF8E8
:10071000102000F0F7F8002000F0F4F8F82000F0C6
:10072000FDF8212000F0EEF8042000F0EBF8F920AD
:1007300000F0F4F8002000F0E5F8082000F0E2F8FE
:100740004821362000F0C7F855213A2000F0C3F8C0
:100750000221B42000F0BFF84121C12000F0BBF815
:10076000C52000F0DBF8002000F0CCF8532000F0AA
:10077000C9F8802000F0C6F8E02000F0CFF80F2084
:1007800000F0C0F81F2000F0BDF81C2000F0BAF8FF
:100790000C2000F0B7F80F2000F0B4F8082000F0AB
:1007A000B1F8482000F0AEF8982000F0ABF8372000
:1007B00000F0A8F80A2000F0A5F8132000F0A2F835
:1007C000042000F09FF8112000F09CF80D2000F0AC
:1007D00099F8002000F096F8E12000F09FF80F2033
:1007E00000F090F8322000F08DF82E2000F08AF80A
:1007F0000B2000F087F80D2000F084F8052000F0B1
:1008000081F8472000F07EF8752000F07BF8372053
:1008100000F078F8062000F075F8102000F072F86B
:10082000032000F06FF8242000F06CF8202000F086
:1008300069F8002000F066F8112000F06FF87820C9
:1008400000F008FC292000F069F810BD10B5FFF792
:10085000BFFE322000F0FEFB00240AE008480470CE
:10086000FFF734FFFFF77EFE502000F0F3FB601C23
:10087000C4B20A2CF2D307200149087010BD000051
:10088000640000202DE9F04104460D4616461F463F
:100890002A2000F043F8201200F028F8E0B200F01F
:1008A00025F8301200F022F8F0B200F01FF82B20EB
:1008B00000F034F8281200F019F8E8B200F016F849
:1008C000381200F013F8F8B200F010F82C2000F005
:1008D00025F8BDE8F08170B505460C46284600F0C5
:1008E0001DF8204600F002F870BD00000349044ADC
:1008F000127801EBC201496808807047140000209B
:100900006400002010B504462046FFF7EFFF10BD3D
:1009100010B504462046FFF7E9FF10BD0349044A1D
:10092000127851F83210088070470000140000203F
:100930006400002008B50121482000F079F820204B
:10094000ADF8000010208DF8030003208DF80200A0
:1009500069460948FFF763FD20210748FFF7EAFDD4
:100960002020ADF8000069460448FFF758FD20211B
:100970000248FFF7DFFD08BD000C014000180140F0
:1009800000BFFEE77047000070B5002100230F2272
:10099000C47804B3154C246804F4E064C4F5E0643E
:1009A000210AC1F10403CA40447804FA03F18478AF
:1009B0001440214309010E4C0678A155047804F037
:1009C0001F050124AC4005786D11AD0005F1E0254F
:1009D000C5F8004109E0047804F01F050124AC408B
:1009E000044D0678761145F8264070BD0CED00E008
:1009F00000E400E080E100E002490143024A1160A6
:100A0000704700000000FA050CED00E070470000A0
:100A100029B1064A52690243044B5A6104E0034A71
:100A200052698243014B5A61704700000010024036
:100A300029B1064A92690243044B9A6104E0034AD1
:100A400092698243014B9A61704700000010024096
:100A500030B500210022002400232D4D6D6805F0E3
:100A60000C0121B1042905D0082923D105E0294D25
:100A7000056022E0274D05601FE0254D6D6805F4F7
:100A80007012234D6D6805F48034022505EB924207
:100A90001CB9214D554305600BE01D4D6D6805F4F3
:100AA00000351DB11C4D5543056002E0194D5543FD
:100AB000056002E0174D056000BF00BF144D6D6872
:100AC00005F0F0010909154D6B5C0568DD404560D6
:100AD0000F4D6D6805F4E061090A104D6B5C4568C7
:100AE000DD4085600A4D6D6805F46051C90A0B4D03
:100AF0006B5C4568DD40C560054D6D6805F440419F
:100B0000890B074D6B5CC568B5FBF3F5056130BD1E
:100B10000010024000127A0000093D000000002091
:100B200010000020704710B500F002F810BD000062
:100B30000CB50020019000903348006840F48030EC
:100B40003149086000BF3048006800F40030009070
:100B50000198401C0190009818B90198B0F5A06F59
:100B6000F1D12948006800F4003010B10120009054
:100B700001E0002000900098012843D1234800683C
:100B800040F01000214908600846006820F003008A
:100B900008600846006840F0020008601A48406893
:100BA000194948600846406848600846406840F473
:100BB000806048600846406820F47C104860084621
:100BC000406840F4E81048600846006840F08070D3
:100BD000086000BF0C48006800F000700028F9D0E1
:100BE0000948406820F0030007494860084640680B
:100BF00040F00200486000BF0348406800F00C006D
:100C00000828F9D10CBD000000100240002002406D
:100C1000042808D14FF0E021096941F004014FF0A8
:100C2000E022116107E04FF0E021096921F00401A1
:100C30004FF0E022116170477047000010B5044684
:100C40006FF00400FFF7E4FFE11704EB5171C1F30B
:100C5000C701074A11701046007800EB4001C1EB54
:100C6000C0104FF6FF7101EAC0000249088010BDB4
:100C7000660000206800002010B51348006840F0AE
:100C800001001149086008464068104908400E49B3
:100C90004860084600680E4908400B49086008464D
:100CA000006820F4802008600846406820F4FE00B8
:100CB00048604FF41F008860FFF735FF4FF0006079
:100CC0000449086010BD0000001002400000FFF859
:100CD000FFFFF6FE08ED00E010B540F225511D487B
:100CE00000F0E3F810B31B4800F09AF9C4B21A48B8
:100CF000008800F40040C8B91748008800F480401C
:100D000060B10A2C03D000201349088020E012486B
:100D1000008840F400401049088019E00D2C06D1ED
:100D20000D48008840F480400B49088010E00A48D4
:100D30000088C0F30D0009490C5407480088401C86
:100D40000549088008460088C72801DD0020088082
:100D500010BD0000003801406A0000206C00002037
:100D600010B586B0044601210420FFF761FE012181
:100D70008803FFF75DFE4FF40070ADF81400032008
:100D80008DF8160018208DF8170005A91E48FFF7EA
:100D900046FB4FF48060ADF8140004208DF8170076
:100DA00005A91948FFF73BFB01940020ADF80800A6
:100DB000ADF80A00ADF80C00ADF810000C20ADF84D
:100DC0000E0001A9114800F0BFF801210F4800F002
:100DD00053F840210D4800F046F8002240F225511A
:100DE0000A4800F08CF825208DF8000003208DF8CB
:100DF00001008DF8020001208DF803006846FFF71E
:100E0000C3FD06B010BD00000008014000380140DD
:100E100010B500BF2021054800F03AF80028F9D0AD
:100E2000024800F0FDF8C0B210BD000000380140DB
:100E300010B504462146054800F0F7F800BF8021B0
:100E4000024800F025F80028F9D010BD0038014014
:100E500010B5044603E014F8010BFFF7E9FF207812
:100E60000028F8D110BD01F40072B2F5007F00D166
:100E700000BFCA430280704721B1828942F4005208
:100E8000828104E082894DF6FF731A4082817047A7
:100E900002460020B1F5007F00D100BF13880B404F
:100EA0000BB1012000E00020704770B5024600241D
:100EB00000230025002040F66A16B14200D100BF91
:100EC000C1F3421501F01F03012606FA03F3012DB9
:100ED00002D19689334006E0022D02D1168A3340B2
:100EE00001E0968A33400C12012606FA04F41688B3
:100EF000344013B10CB1012000E0002070BDF0B50A
:100F00000346002400260025002040F66A17B94257
:100F100000D100BF1846C1F3421401F01F0601279B
:100F200007FA06F5012C01D10C3004E0022C01D1A6
:100F3000103000E014301AB107682F43076002E058
:100F40000768AF430760F0BD2DE9F04786B005465E
:100F50000E460024A24600BFA1460027B08900B17A
:100F600000BF2F462C8A4CF6FF700440F0880443E3
:100F70002C82AC894EF6F3100440B08831890843C6
:100F8000718908430443AC81AC8A4FF6FF400440AA
:100F9000B0890443AC8201A8FFF75AFD1F4887427D
:100FA00002D1DDF810A001E0DDF80CA0A88900F462
:100FB000004040B10AEBCA0000EB0A10316849005A
:100FC000B0FBF1F807E00AEBCA0000EB0A10316849
:100FD0008900B0FBF1F86420B8FBF0F004012009AF
:100FE000642101FB1089A88900F4004040B132203F
:100FF00000EBC900B0FBF1F000F00700044308E08B
:10100000322000EB09106421B0FBF1F000F00F007A
:1010100004432C8106B0BDE8F08700000038014091
:1010200001468888C0F308007047C1F30802828037
:10103000704700BFFEE702E008C8121F08C1002A7F
:10104000FAD170477047002001E001C1121F002A49
:10105000FBD170470146114A12884A434FF0E02302
:101060005A6100229A611A46126942F001021A611D
:1010700000BF4FF0E022106900F001021AB100F445
:101080008032002AF5D04FF0E022126922F00102EE
:101090004FF0E0231A6100229A6170476800002037
:1010A0004820FFF7CBFD4FF4A060FFF7A5FCFFF74A
:1010B00041FC4FF46130FFF753FEFFF7C7FB4FF4DD
:1010C0007840FFF73BFA4FF4FA70FFF7C3FF4FF495
:1010D000FC60FFF733FA4FF4FA70FFF7BBFFFFF73E
:1010E00041FA03A0FFF7B4FE01E0FFF779F8FCE74F
:1010F00043414D2052454144590D0A001C1100083E
:10110000000000206C000000361000088811000864
:101110006C000020CC040000461000080000000015
:101120000102030401020304060708090204060879
:101130000000006002000060FE000060000100602E
:10114000FE07006000080060FEFF01600000026012
:10115000FEFF076000000860FE07006400080064EE
:10116000FE07006800080068FE07006C0008006CBD
:10117000FEFF016C0000026CFEFF076C0000086CB3
:08118000000000000000000067
:0400000508000131BD
:00000001FF
